{
  "_format": "hh-sol-artifact-1",
  "contractName": "Transactions",
  "sourceName": "contracts/Transactions.sol",
  "abi": [
    {
      "anonymous": false,
      "inputs": [
        {
          "indexed": false,
          "internalType": "address",
          "name": "from",
          "type": "address"
        },
        {
          "indexed": false,
          "internalType": "address",
          "name": "receiver",
          "type": "address"
        },
        {
          "indexed": false,
          "internalType": "uint256",
          "name": "amount",
          "type": "uint256"
        },
        {
          "indexed": false,
          "internalType": "string",
          "name": "message",
          "type": "string"
        },
        {
          "indexed": false,
          "internalType": "uint256",
          "name": "timestamp",
          "type": "uint256"
        },
        {
          "indexed": false,
          "internalType": "string",
          "name": "keyword",
          "type": "string"
        }
      ],
      "name": "Transfer",
      "type": "event"
    },
    {
      "inputs": [
        {
          "internalType": "address payable",
          "name": "receiver",
          "type": "address"
        },
        {
          "internalType": "uint256",
          "name": "amount",
          "type": "uint256"
        },
        {
          "internalType": "string",
          "name": "message",
          "type": "string"
        },
        {
          "internalType": "string",
          "name": "keyword",
          "type": "string"
        }
      ],
      "name": "addToBlockchain",
      "outputs": [],
      "stateMutability": "nonpayable",
      "type": "function"
    },
    {
      "inputs": [],
      "name": "getAllTransactions",
      "outputs": [
        {
          "components": [
            {
              "internalType": "address",
              "name": "sender",
              "type": "address"
            },
            {
              "internalType": "address",
              "name": "receiver",
              "type": "address"
            },
            {
              "internalType": "uint256",
              "name": "amount",
              "type": "uint256"
            },
            {
              "internalType": "string",
              "name": "message",
              "type": "string"
            },
            {
              "internalType": "uint256",
              "name": "timestamp",
              "type": "uint256"
            },
            {
              "internalType": "string",
              "name": "keyword",
              "type": "string"
            }
          ],
          "internalType": "struct Transactions.TransferStruct[]",
          "name": "",
          "type": "tuple[]"
        }
      ],
      "stateMutability": "view",
      "type": "function"
    },
    {
      "inputs": [],
      "name": "getTransactionsCount",
      "outputs": [
        {
          "internalType": "uint256",
          "name": "",
          "type": "uint256"
        }
      ],
      "stateMutability": "view",
      "type": "function"
    },
    {
      "inputs": [],
      "name": "transactionCount",
      "outputs": [
        {
          "internalType": "uint256",
          "name": "",
          "type": "uint256"
        }
      ],
      "stateMutability": "view",
      "type": "function"
    },
    {
      "inputs": [
        {
          "internalType": "uint256",
          "name": "",
          "type": "uint256"
        }
      ],
      "name": "transactions",
      "outputs": [
        {
          "internalType": "address",
          "name": "sender",
          "type": "address"
        },
        {
          "internalType": "address",
          "name": "receiver",
          "type": "address"
        },
        {
          "internalType": "uint256",
          "name": "amount",
          "type": "uint256"
        },
        {
          "internalType": "string",
          "name": "message",
          "type": "string"
        },
        {
          "internalType": "uint256",
          "name": "timestamp",
          "type": "uint256"
        },
        {
          "internalType": "string",
          "name": "keyword",
          "type": "string"
        }
      ],
      "stateMutability": "view",
      "type": "function"
    }
  ],
  "bytecode": "0x608060405234801561001057600080fd5b50610fae806100206000396000f3fe608060405234801561001057600080fd5b50600436106100575760003560e01c806327506f531461005c578063578cb8f91461007a5780639ace38c214610098578063b77bf600146100cd578063cc2d7ead146100eb575b600080fd5b610064610107565b60405161007191906108a4565b60405180910390f35b61008261034a565b60405161008f91906108d5565b60405180910390f35b6100b260048036038101906100ad9190610930565b610353565b6040516100c4969594939291906109b6565b60405180910390f35b6100d56104ef565b6040516100e291906108d5565b60405180910390f35b61010560048036038101906101009190610b98565b6104f5565b005b60606001805480602002602001604051908101604052809291908181526020016000905b8282101561034157838290600052602060002090600602016040518060c00160405290816000820160009054906101000a900473ffffffffffffffffffffffffffffffffffffffff1673ffffffffffffffffffffffffffffffffffffffff1673ffffffffffffffffffffffffffffffffffffffff1681526020016001820160009054906101000a900473ffffffffffffffffffffffffffffffffffffffff1673ffffffffffffffffffffffffffffffffffffffff1673ffffffffffffffffffffffffffffffffffffffff1681526020016002820154815260200160038201805461021490610c66565b80601f016020809104026020016040519081016040528092919081815260200182805461024090610c66565b801561028d5780601f106102625761010080835404028352916020019161028d565b820191906000526020600020905b81548152906001019060200180831161027057829003601f168201915b50505050508152602001600482015481526020016005820180546102b090610c66565b80601f01602080910402602001604051908101604052809291908181526020018280546102dc90610c66565b80156103295780601f106102fe57610100808354040283529160200191610329565b820191906000526020600020905b81548152906001019060200180831161030c57829003601f168201915b5050505050815250508152602001906001019061012b565b50505050905090565b60008054905090565b6001818154811061036357600080fd5b90600052602060002090600602016000915090508060000160009054906101000a900473ffffffffffffffffffffffffffffffffffffffff16908060010160009054906101000a900473ffffffffffffffffffffffffffffffffffffffff16908060020154908060030180546103d890610c66565b80601f016020809104026020016040519081016040528092919081815260200182805461040490610c66565b80156104515780601f1061042657610100808354040283529160200191610451565b820191906000526020600020905b81548152906001019060200180831161043457829003601f168201915b50505050509080600401549080600501805461046c90610c66565b80601f016020809104026020016040519081016040528092919081815260200182805461049890610c66565b80156104e55780601f106104ba576101008083540402835291602001916104e5565b820191906000526020600020905b8154815290600101906020018083116104c857829003601f168201915b5050505050905086565b60005481565b60016000808282546105079190610cc6565b9250508190555060016040518060c001604052803373ffffffffffffffffffffffffffffffffffffffff1681526020018673ffffffffffffffffffffffffffffffffffffffff16815260200185815260200184815260200142815260200183815250908060018154018082558091505060019003906000526020600020906006020160009091909190915060008201518160000160006101000a81548173ffffffffffffffffffffffffffffffffffffffff021916908373ffffffffffffffffffffffffffffffffffffffff16021790555060208201518160010160006101000a81548173ffffffffffffffffffffffffffffffffffffffff021916908373ffffffffffffffffffffffffffffffffffffffff16021790555060408201518160020155606082015181600301908161063f9190610ea6565b506080820151816004015560a082015181600501908161065f9190610ea6565b50505050505050565b600081519050919050565b600082825260208201905092915050565b6000819050602082019050919050565b600073ffffffffffffffffffffffffffffffffffffffff82169050919050565b60006106bf82610694565b9050919050565b6106cf816106b4565b82525050565b6000819050919050565b6106e8816106d5565b82525050565b600081519050919050565b600082825260208201905092915050565b60005b8381101561072857808201518184015260208101905061070d565b60008484015250505050565b6000601f19601f8301169050919050565b6000610750826106ee565b61075a81856106f9565b935061076a81856020860161070a565b61077381610734565b840191505092915050565b600060c08301600083015161079660008601826106c6565b5060208301516107a960208601826106c6565b5060408301516107bc60408601826106df565b50606083015184820360608601526107d48282610745565b91505060808301516107e960808601826106df565b5060a083015184820360a08601526108018282610745565b9150508091505092915050565b600061081a838361077e565b905092915050565b6000602082019050919050565b600061083a82610668565b6108448185610673565b93508360208202850161085685610684565b8060005b858110156108925784840389528151610873858261080e565b945061087e83610822565b925060208a0199505060018101905061085a565b50829750879550505050505092915050565b600060208201905081810360008301526108be818461082f565b905092915050565b6108cf816106d5565b82525050565b60006020820190506108ea60008301846108c6565b92915050565b6000604051905090565b600080fd5b600080fd5b61090d816106d5565b811461091857600080fd5b50565b60008135905061092a81610904565b92915050565b600060208284031215610946576109456108fa565b5b60006109548482850161091b565b91505092915050565b610966816106b4565b82525050565b600082825260208201905092915050565b6000610988826106ee565b610992818561096c565b93506109a281856020860161070a565b6109ab81610734565b840191505092915050565b600060c0820190506109cb600083018961095d565b6109d8602083018861095d565b6109e560408301876108c6565b81810360608301526109f7818661097d565b9050610a0660808301856108c6565b81810360a0830152610a18818461097d565b9050979650505050505050565b6000610a3082610694565b9050919050565b610a4081610a25565b8114610a4b57600080fd5b50565b600081359050610a5d81610a37565b92915050565b600080fd5b600080fd5b7f4e487b7100000000000000000000000000000000000000000000000000000000600052604160045260246000fd5b610aa582610734565b810181811067ffffffffffffffff82111715610ac457610ac3610a6d565b5b80604052505050565b6000610ad76108f0565b9050610ae38282610a9c565b919050565b600067ffffffffffffffff821115610b0357610b02610a6d565b5b610b0c82610734565b9050602081019050919050565b82818337600083830152505050565b6000610b3b610b3684610ae8565b610acd565b905082815260208101848484011115610b5757610b56610a68565b5b610b62848285610b19565b509392505050565b600082601f830112610b7f57610b7e610a63565b5b8135610b8f848260208601610b28565b91505092915050565b60008060008060808587031215610bb257610bb16108fa565b5b6000610bc087828801610a4e565b9450506020610bd18782880161091b565b935050604085013567ffffffffffffffff811115610bf257610bf16108ff565b5b610bfe87828801610b6a565b925050606085013567ffffffffffffffff811115610c1f57610c1e6108ff565b5b610c2b87828801610b6a565b91505092959194509250565b7f4e487b7100000000000000000000000000000000000000000000000000000000600052602260045260246000fd5b60006002820490506001821680610c7e57607f821691505b602082108103610c9157610c90610c37565b5b50919050565b7f4e487b7100000000000000000000000000000000000000000000000000000000600052601160045260246000fd5b6000610cd1826106d5565b9150610cdc836106d5565b9250828201905080821115610cf457610cf3610c97565b5b92915050565b60008190508160005260206000209050919050565b60006020601f8301049050919050565b600082821b905092915050565b600060088302610d5c7fffffffffffffffffffffffffffffffffffffffffffffffffffffffffffffffff82610d1f565b610d668683610d1f565b95508019841693508086168417925050509392505050565b6000819050919050565b6000610da3610d9e610d99846106d5565b610d7e565b6106d5565b9050919050565b6000819050919050565b610dbd83610d88565b610dd1610dc982610daa565b848454610d2c565b825550505050565b600090565b610de6610dd9565b610df1818484610db4565b505050565b5b81811015610e1557610e0a600082610dde565b600181019050610df7565b5050565b601f821115610e5a57610e2b81610cfa565b610e3484610d0f565b81016020851015610e43578190505b610e57610e4f85610d0f565b830182610df6565b50505b505050565b600082821c905092915050565b6000610e7d60001984600802610e5f565b1980831691505092915050565b6000610e968383610e6c565b9150826002028217905092915050565b610eaf826106ee565b67ffffffffffffffff811115610ec857610ec7610a6d565b5b610ed28254610c66565b610edd828285610e19565b600060209050601f831160018114610f105760008415610efe578287015190505b610f088582610e8a565b865550610f70565b601f198416610f1e86610cfa565b60005b82811015610f4657848901518255600182019150602085019450602081019050610f21565b86831015610f635784890151610f5f601f891682610e6c565b8355505b6001600288020188555050505b50505050505056fea264697066735822122053875e9686378b9eca5e62d84f9c3b2b2d571c578b87b51d51292f5316a04d0264736f6c63430008120033",
  "linkReferences": {},
  "deployedLinkReferences": {}
}